:020000040800F2
:10000000100A0020D5000008493700082D360008E6
:1000100000000000000000000000000000000000E0
:10002000000000000000000000000000C93C0008C3
:10003000000000000000000009390008215B0008F2
:10004000E7000008E7000008F73A0008E7000008AA
:10005000E700000869090008790900088909000813
:10006000E7000008E7000008E7000008E7000008D4
:10007000E7000008E7000008E7000008E7000008C4
:10008000E7000008E7000008E700000800000000A3
:10009000E7000008E7000008E7000008E7000008A4
:1000A000E7000008E7000008E7000008E700000894
:1000B000E1640008E700000800000000E700000815
:1000C0000348854600F08EFB00480047F56F0008A6
:1000D000100A00200448804704480047FEE7FEE776
:1000E000FEE7FEE7FEE7FEE7C95B0008C100000887
:1000F00030B50B46014600202022012409E00D46C0
:10010000D5409D4205D31D469540491B2546954047
:1001100040191546521E002DF1DC30BD70B500248B
:100120002546002801DA01244042002901DA012590
:100130004942FFF7DDFFAC4200D04042002C00D026
:10014000494270BDF0B51FB40646002082B0054696
:100150004024019100901BE0019922460F46304651
:1001600000F04AFA049A059B801A994110D3104670
:100170001946224600F030FA361A8F41019722467E
:1001800001200021009F00F027FA38184D4100900F
:100190002046641E0028DFDC019B00982946324679
:1001A00007B0F0BD03460B439B0703D009E008C925
:1001B000121F08C0042AFAD203E00B780370401C17
:1001C000491C521EF9D27047D2B201E00270401CA5
:1001D000491EFBD270470022F6E710B513460A46C7
:1001E00004461946FFF7F0FF204610BD30B505461E
:1001F0000020034600E05B1C934205D2EC5CC85C27
:10020000201A01D1002CF6D130BD0000F0B5074610
:100210000846584087B0C00F049048000E46590069
:1002200040084908BC1A884105D2384631461E4666
:1002300017460B4602465800400810434CD0300D7C
:10024000039040055900400D490D0590401A029059
:10025000402872DA18030121000B090508430190B8
:1002600004980092002805D001995242002088414C
:1002700000920190029840210A1A0199009800F01A
:10028000ABF905460C466B4607CB00F0C6F9C01922
:100290007141039A0E0D0023D71756401A467A4033
:1002A000164344D0049A002A2DD0029A012A039AB8
:1002B00015DC1205C01A914101263605001C71415A
:1002C000D20F059ED2070093019202962A4623463A
:1002D00000F0C3F907B0F0BD38463146FAE716051D
:1002E000224A0F46B218C01AB74101210905001C65
:1002F0004F4100187F41114618187941E20F104311
:100300006D19644113E0E2076D0815436408C207E4
:100310001443039A01261205C01A91413605001CA8
:100320007141CE07400830434908C01851412A4660
:10033000234600F085F9CDE7FFE70498012240004D
:10034000C117121A00238B4104983146C417381A7A
:10035000A141EEE730B40124E407634030BC55E727
:1003600030B40124E407614030BC4FE70000E0FFF7
:10037000F0B51FB488B00B9909980024484009993A
:10038000C00F490049080991C0070B990090490026
:1003900049080B9109990898A64608431CD00B9967
:1003A0000A98084318D0099801244000420D4800DB
:1003B000410D099824050003000B204309900B9878
:1003C0000003000B20430B9050181C4940180022DA
:1003D00001901446104605E0002001460DB0F0BD26
:1003E000032801DA034600E003239C46C11A0AAE43
:1003F0000AE05F0008ADED5B4F00F75B7D4300272F
:10040000AA187C41491C5B1E6145F2DD410004AB2A
:100410005A522104120C0A43240C401C0828DFDB2A
:10042000019802900099704601910090059B049AF2
:100430000799069800F011F9D0E700000DFCFFFFC6
:10044000F0B50C465C4085B0E40FE40703944C0023
:100450000026640859009446490802460296224341
:1004600021D062460A431ED06200570D4A000E0397
:100470002303550D012402462C492405781B1B0B30
:10048000360B401823432643614600901C46501A01
:10049000B44103D30098401C009002E092180098E9
:1004A0005B41002803DA0020014605B0F0BD0020C2
:1004B000012109050746864611E064461D46141BC6
:1004C000B54106D36546521BB341744607430C43FE
:1004D000A646CD0740084908284392185B410546C7
:1004E0000D43EAD11046184313D0604619465040D8
:1004F0007140084306D06046101AB34106D201226B
:10050000002306E000220123DB0702E00122D243A0
:100510005310009874460105381C6141029C039DEC
:100520000019694100F08CF8BFE70000FD030000EE
:100530000EB5C217C10F5040CA0740180021054B25
:100540000293019200910A460B4600F086F803B030
:1005500000BD0000330400000EB5054902910021E2
:1005600000910A460B46019100F077F803B000BDF8
:10057000330400004A0009030123090B1B0519433A
:10058000094B10B5520D9A4201DA002010BD064BFE
:1005900034339A4203DC9A1A00F02EF810BD034956
:1005A0005118884010BD0000FF030000CDFBFFFF85
:1005B00010B5002904DB0124E40740428C412146A8
:1005C000002B04DB1C460123DB075242A341994266
:1005D00000D1904210BD000010B5202A04DB014676
:1005E000203A9140002010BD914020239C1A0346E0
:1005F000E3401943904010BD10B5202A04DB0846A3
:10060000203AD040002110BD0B46D340D0402024DA
:10061000A21A91400843194610BD10B5202A06DBE6
:10062000CB170846203A1041C1170B4306E00B4692
:100630001341D0402024A21A91400843194610BD0E
:1006400010B5002B08DA0024401C614192185B4170
:100650001A4301D14008400010BDF0B51FB482B06C
:1006600005460C0003D0084605F050FF02E005F0F7
:100670004DFF20300246009021462846FFF7ACFF90
:10068000049B059A04460F4618431143084314D0AF
:10069000184610431BD0009840210A1A18460599A5
:1006A000FFF7AAFF05460E46009A05990498FFF742
:1006B00093FF084305D0012004E02046394607B0E7
:1006C000F0BD0020C11705430E432C43374300996A
:1006D0000E986305401A7905E40A00220C43FD0ACE
:1006E0000A3002D500200146E9E7010510196941E9
:1006F0000C9C0D9D00196941FFF7A2FFDFE7000088
:10070000F8B50546480040080C46284304D0600070
:10071000184A400D904201DD2846F8BD154935398B
:10072000884210DC88420BDB290D20030843290393
:10073000014305D0E00F1049C00741180020F8BD63
:1007400000200146F8BD161A4020821B284621468B
:10075000FFF742FF07460091284621463246FFF741
:100760004BFF3A46009BFFF76BFF3246FFF734FF23
:10077000F8BD0000330400000000F03F4A00090308
:100780000123090B1B0519430A4B10B5520D9A4260
:1007900002DA0020014610BD064B34339A4203DCD6
:1007A0009A1AFFF729FF10BD034BD218FFF714FF69
:1007B00010BD0000FF030000CDFBFFFF10B50029B6
:1007C00004DB0124E40740428C412146002B04DB7A
:1007D0001C460123DB075242A3418B4200D18242D7
:1007E00010BD0000064C0125064E05E0E36807CC6D
:1007F0002B430C3C98471034B442F7D3FFF764FC0A
:10080000307800085078000810B586B0044600BF64
:10081000002C06D0012C13D0022C20D0032C3CD16C
:100820002CE000BF2748C06A022108432549C8625E
:100830000846C06A02210840009000BF00BF2DE0BA
:1008400000BF2048C06A012108431E49C86208460B
:10085000C06AC007C00F009000BF00BF1EE000BF0D
:100860001848C06A022108431649C8620846C06A8F
:1008700002210840009000BF00BF0FE000BF1148F8
:10088000C06A022108430F49C8620846C06A0221B3
:100890000840009000BF00BF00E000BF00BF00BFE5
:1008A00060000949085A019001200290002003903D
:1008B00003200490A100054A505801A900F020FA35
:1008C00006B010BD00100240EC7700083800002090
:1008D00010B504466200044B995AA200034B985885
:1008E000012200F00DFB10BDEC770008380000205D
:1008F00010B504466200044B995AA200034B985865
:1009000000F0FAFA10BD0000EC7700083800002073
:1009100000B585B003200190002002900320400321
:10092000009069460520000700F0EAF90A48406B8C
:100930000121890508430849486300F0ADF900F03A
:10094000BFF900F0B3F90448406B012189058843E1
:100950000149486305B000BD0010024010B50446CF
:10096000204602F0B9FB10BD10B5012000F0B8F927
:10097000022000F0B5F910BD10B5042000F0B0F968
:10098000082000F0ADF910BD10B5102000F0A8F956
:10099000202000F0A5F9402000F0A2F9802000F00E
:1009A0009FF9FF20013000F09BF90120400200F088
:1009B00097F90120800200F093F90120C00200F0B5
:1009C0008FF90120000300F08BF90120400300F0B3
:1009D00087F90120800300F083F90120C00300F0B3
:1009E0007FF910BD08B50E480E4908600020009040
:1009F0000B480860002048607F210A488160FF2181
:100A0000C160002101618161C16101F031FC0028F8
:100A100004D00320FFF75CFF00F006F808BD0000DB
:100A200000280040EC05002000BFFEE70246002140
:100A30000FE0C800094B1858904208D8481CC00065
:100A40001858904203D9C800C01800797047481C54
:100A5000C1B21529EDD300BFFEE70000D47600082F
:100A600010B50446002C01D1012010BDA06D002856
:100A700006D1E065002154200155204600F00AF916
:100A8000A06D10210840002806D12068806804214C
:100A90000840800800280AD0A06D10210843A065F6
:100AA00000BF00215420015500BF0120DDE7A06DEB
:100AB000FF210131884302210843A0652068806836
:100AC0008007800F012807D120680068C007C00F89
:100AD000002801D0012000E0002000283AD100BF0A
:100AE000032189076068884207D0494260688842CC
:100AF00003D04900606888420CD1206800698000FA
:100B000080082168086120680069616808432168DD
:100B1000086112E02068006980008008216808618F
:100B20005A4880680F2189048843584988600846DC
:100B30008068616808435549886000BF2068C068C4
:100B4000182188432168C8602068C068A1680843EC
:100B50002168C8604D4880680121490688434B4997
:100B6000886008468068218F4906084347498860A5
:100B700020688068012109070840002804D1206806
:100B800080680843216888602068C0684049084040
:100B90002168C8602169E068022901D1042100E0D0
:100BA00000210843216A49030843216B4900084397
:100BB000616B0843A16989030843E169C9030843DC
:100BC0002168C96808432168C860FF21C231A06A52
:100BD000884207D0E16AA06A08432168C9680843CF
:100BE0002168C860606A012812D1206A002807D1F4
:100BF0002068C0680121090408432168C86007E033
:100C0000A06D20210843A065E06D01210843E06547
:100C1000206C012817D120680069FF2189008843D2
:100C200021680861616CA06C0843E16C084321688D
:100C300009690843216808612068006901210843A7
:100C4000216808610BE020680069C007C00F002818
:100C500005D02068006940084000216808612068CC
:100C60004069C008C0002168486120684069E16BA4
:100C70000843216848610020E065A06D0221884397
:100C800001210843A0650020EFE600000027014095
:100C90001902FEFF7047000003484068400840000A
:100CA000014948607047000000580140034840680F
:100CB0000421884301494860704700000058014002
:100CC000034840680221884301494860704700009A
:100CD0000058014010B50446204602F09BF910BDB3
:100CE00010B50446054840692040002804D0034858
:100CF00044612046FFF7EEFF10BD000000040140F4
:100D000070B50346002200240020DFE00126964053
:100D10000D6835402C46002C77D04D68022D02D04E
:100D20004D68122D15D1D508AE001D462035A859A5
:100D30005507EE0E0F25B5400646AE433046560722
:100D4000F60E0D69B5402843D508AD001E46203685
:100D500070514D68012D08D04D68022D05D04D68A9
:100D6000112D02D04D68122D18D198685600032518
:100D7000B5400646AE4330465600CD68B5402843E0
:100D800098605868012595400646AE4330461026C7
:100D90004D6835402D099540284358601868560025
:100DA0000325B5400646AE4330460D79AD07AD0F7D
:100DB0005600B54028431860D86856000325B54052
:100DC0000646AE43304656008D68B5402843D8608D
:100DD000012636074D683540B54276D13E4D6D6BE4
:100DE000012635433C4E75633C4D9608B600A85924
:100DF00095072E0F0F25B5400646AE433046052514
:100E00002D07AB4202D100251AE05EE0344DAB4223
:100E100001D1012514E0334DAB4201D102250FE091
:100E2000314DAB4201D103250AE0304DAB4201D137
:100E3000042505E02E4DAB4201D1052500E0062535
:100E40009607360FB5402843244D9608B600A851A2
:100E5000284D28680546A5432846012636044D68D6
:100E60003540B54202D1054625432846214D28602C
:100E700068680546A5432846012676044D68354036
:100E8000B54202D10546254328461A4D6860A86838
:100E90000546A5432846012636054D683540B5422E
:100EA00002D1054625432846124DA860E86805464C
:100EB000A5432846012676054D683540B54202D146
:100EC0000546254328460B4DE860521C0D68D54069
:100ED000002D00D01AE770BD00100240080001404C
:100EE0000004005000080050000C0050001000509A
:100EF000001C00500004014042694A4042617047B2
:100F0000002A01D0816100E08162704701480068D9
:100F1000704700005000002002480068401C014952
:100F2000086070475000002010B506480068022194
:100F3000084304490860032000F006F800F008F8B0
:100F4000002010BD00200240014600207047000034
:100F500010B500F051F800F045F805480068082188
:100F600008430349086000BF00BF00F031F810BD1E
:100F70000020024000BFC206D20E01219140024A69
:100F8000116000BF7047000080E200E000BFC206B1
:100F9000D20E01219140024A116000BF704700004B
:100FA00000E100E000BFC206D20E01219140024ADA
:100FB000116000BF7047000000E200E070B5044619
:100FC0000D4616462946204602F0C0FB70BD0000C3
:100FD00003480068012189020843014908607047FD
:100FE000007000400348006801214902084301499C
:100FF0000860704700700040034800681021884373
:101000000149086070470000007000400748006810
:101010000221084305490860054800690421084386
:101020000349086100BF00BF30BF70470070004037
:1010300000ED00E0F0B585B00546002600200390E5
:1010400002900024002701900090102D7ED008DC33
:10105000012D7CD0022D7BD0042D7AD0082D79D1A2
:1010600035E1202D06D0402D4CD0E81FF93800285E
:10107000F5D160E1C548066900690321090408400B
:10108000044601200004844206D1C01130400028EB
:1010900002D06010029034E001204004844206D166
:1010A00002203040002802D0B948029029E00320F5
:1010B0000004844223D1B548403800680121490426
:1010C000084000281BD0B148403800682101084082
:1010D0000390012109050398401A09D0401A04D051
:1010E000401A08D1AB48029008E0AB48029005E0F6
:1010F000AA48029002E0AA48029000BF01E0002046
:1011000002903EE1A148C0680121890608400446DA
:10111000002C41D19D484038006849100840002803
:101120003AD09A484038C0680F21890408400746E1
:1011300096484038C0680321890508400190B80CE2
:1011400098490F5C0198800D401C04E0E4E034E015
:101150005EE089E014E101908C484038C0680121CC
:101160000904084000280CD1884840380068102144
:101170000840002802D08A48009004E08A48009085
:1011800001E08A4800900098784300900199009807
:10119000FEF7AEFF02900FE001208006844209D1E5
:1011A0007A484038806802210840002802D08048F0
:1011B000029001E000200290E3E07448C0688407D8
:1011C000A40F002C03D100F041FB02901FE0022C81
:1011D00009D16E484038006804210840002802D038
:1011E0007148029013E0012C03D100F041FB029002
:1011F0000DE0032C09D1654800690121490208402E
:10120000002802D08801029001E000200290B8E09E
:101210005E48C0680C2108400446002C03D100F051
:1012200003FB02901FE0082C09D1584840380068A1
:1012300004210840002802D05B48029013E0042CEF
:1012400003D100F015FB02900DE00C2C09D14F48A2
:101250000069012149020840002802D0880102905B
:1012600001E0002002908CE04848C0680321890218
:1012700008400446002C03D100F0D6FA029025E085
:101280000120C002844209D140484038006804214E
:101290000840002802D04448029017E00120800254
:1012A000844203D100F0E4FA02900FE003208002B0
:1012B000844209D1354800690121490208400028CB
:1012C00002D08801029001E00020029059E02F48EE
:1012D000C0680321090308400446002C03D100F034
:1012E000A3FA029017E001204003844209D1274865
:1012F0004038006804210840002802D02A480290A3
:1013000009E001200003844203D100F0B1FA029009
:1013100001E00020029034E01C484038806B01213D
:1013200089050840884203D100F07EFA029001E06E
:101330000020029025E01548C068032109040840F8
:101340000446002C03D100F06FFA029017E0012050
:101350004004844209D10D48403800680421084007
:10136000002802D01048029009E0012000048442C5
:1013700003D100F07DFA029001E00020029000E02D
:1013800000BF00BF029805B0F0BD00004010024051
:101390008890000020A1070040420F0080841E00BA
:1013A00000093D000F7800080024F40000127A00C4
:1013B000006CDC02F8B504460026002520212068D8
:1013C000084020287CD120680840202800D100BF98
:1013D00000279148806B012109070840002805D1AA
:1013E0008D48806B08438C49886301278B480068CF
:1013F000FF2101310840002816D1884800680843C1
:1014000086490860FFF782FD064606E0FFF77EFD8D
:10141000801B642801D90320F8BD80480068FF21A3
:10142000013108400028F1D07B48006803210905FC
:101430000840054660680840A8420DD00911606860
:101440000840884208D174480068012149040840D6
:10145000002801D00120DFE76F48403000690321F8
:10146000090408400546002D3CD060680840A842A9
:1014700038D0202120680840202833D166484030E9
:101480000069032109048843054663484030006928
:101490000121C904084360494031086108460069D8
:1014A0000121C90488435C4940310861084605614F
:1014B00080152840002815D0FFF728FD064608E0D3
:1014C00039E0FFF723FD801B5549884201D90320ED
:1014D000A2E7514840300069012149020840400A12
:1014E0000028EED000BF00BF032109046068084057
:1014F00088420AD14848006809018843032212053E
:101500006168114008434449086000BF42484030C8
:101510000069032212046168114008433E494031CA
:10152000086100BF012F05D13B48806B89058843C6
:101530003949886300BF2078C007C00F002809D050
:1015400035484030C06880088000A16808433249AF
:101550004031C860022120680840022809D12E4885
:101560004030C0680C218843E16808432A49403173
:10157000C86004212068084004280AD12648403069
:10158000C068032189028843216908432249403108
:10159000C86008212068084008280AD11E48403049
:1015A000C068032109038843616908431A4940312F
:1015B000C860FF2101312068084088420AD11648DE
:1015C0004030C068032109048843A16908431249D7
:1015D0004031C860402120680840402809D10E48A9
:1015E0004030C06809058843216A08430A494031F0
:1015F000C86080212068084080280AD10648403011
:10160000C068032189048843E169084302494031E5
:10161000C860002000E70000001002400070004099
:101620008813000070B504460D4600267648006811
:10163000C007C00FA8420ED273480068400840009F
:1016400028437149086008460068C007C00FA842D7
:1016500001D0012070BD022120680840022807D176
:101660006A48C068F0218843A16808436749C86098
:101670002078C007C00F00284CD06068022809D12C
:1016800062480068012149040840400C002824D128
:101690000120DFE76068032809D15C480068012168
:1016A00049060840400E002817D10120D2E76068A3
:1016B000012808D155480068042108408008002806
:1016C0000BD10120C6E751480068012149020840BA
:1016D000400A002801D10120BCE74C48C0688008BE
:1016E0008000616808434949C860FFF70FFC06465F
:1016F000606802280FD107E0FFF708FC801B44490F
:10170000884201D90320A5E74048C0680C21084061
:101710000828F1D134E0606803280FD107E0FFF713
:10172000F5FB801B3A49884201D9032092E73748EC
:10173000C0680C2108400C28F1D121E06068012824
:101740000FD107E0FFF7E2FB801B3149884201D946
:1017500003207FE72D48C0680C2108400428F1D100
:101760000EE007E0FFF7D2FB801B2949884201D930
:1017700003206FE72548C0680C2108400028F1D1FC
:1017800021480068C007C00FA8420ED91E48006853
:101790004008400028431C49086008460068C0070C
:1017A000C00FA84201D0012054E70421206808405E
:1017B000042808D11548C068072109028843E16858
:1017C00008431249C860082120680840082809D148
:1017D0000E48C0680721C90288432169C90008432F
:1017E0000A49C86000F044F80849C968F02211406D
:1017F0000909084A515CC840074908600320FFF7FF
:10180000A3FB002026E70000002002400010024059
:1018100088130000F77700084C000020014800689A
:10182000704700004C00002000B5FFF7F7FF0549A6
:10183000C968072212021140090A034A515CC840D4
:1018400000BD0000001002400778000800B5FFF757
:10185000E5FF0549C9680722D2021140C90A034AB7
:10186000515CC84000BD000000100240077800082D
:10187000FEB50025002600270024002001900090DE
:101880002F48C5680C202840002847D0042804D0E1
:1018900008280ED00C2840D10EE0294800681021FD
:1018A0000840002802D02748009001E02648009018
:1018B00042E0264800903FE00F2080042840800C42
:1018C00023490E5C032080052840800D471C1C48DE
:1018D000C068012109040840002807D01B49714352
:1018E00008463946FEF704FC044614E01448006834
:1018F00010210840002807D0124971430846394694
:10190000FEF7F6FB044606E00F49714308463946E8
:10191000FEF7EEFB044600940EE000BF0848406866
:10192000072149030840400B01900198401C012108
:101930008140C803009000BF00BF0098FEBD0000BA
:101940000010024000093D000024F40000127A005B
:101950000F780008F8B5044600252078C007C00FAE
:1019600000287FD0FE48C0680C21084008280BD012
:10197000FB48C06808400C2813D1F948C068012111
:101980000904084088420CD1F54800680121490447
:101990000840400C002865D06068002862D1012012
:1019A000F8BD00BF012109046068884205D1EC48F8
:1019B00000680843EA49086027E0052109046068D7
:1019C00088420ED1E6480068012189040843E449B1
:1019D000086008460068012109040843E0490860DE
:1019E00013E0DF480068012109048843DC490860EE
:1019F00008460068012109040840009000BFD8484B
:101A0000006889008843D649086000BF60680028E4
:101A100014D0FFF77BFA054607E0FFF777FA401B83
:101A2000D049884201D90320BAE7CD480068012196
:101A300049040840400C0028EFD013E0FFF766FA95
:101A4000054607E0FFF762FA401BC649884201D904
:101A50000320A5E7C2480068012149040840400C62
:101A60000028EFD1022120680840022868D1BC4834
:101A7000C0680C21084004280BD0B948C068084051
:101A80000C281DD1B648C06801210904084000286F
:101A900016D1B3480068042108408008002804D00B
:101AA000E068012801D001207AE7AD4840681F2195
:101AB00009028843216909020843A94948603FE0B7
:101AC000E068002824D0A648006809218843E1681E
:101AD0000843A3490860FFF719FA054606E0FFF737
:101AE00015FA401B022801D9032059E79C480068D9
:101AF0000421084080080028F1D0994840681F213F
:101B0000090288432169090208439549486017E0A2
:101B1000934800684008400091490860FFF7F6F9D3
:101B2000054606E0FFF7F2F9401B022801D9032021
:101B300036E78B4800680421084080080028F1D16E
:101B4000102120680840102860D18548C0680C2109
:101B5000084000285BD18248006801214902084002
:101B6000400A002804D0E069002801D1012017E7CD
:101B70007B48616A4068072252031040814219D9AC
:101B8000606A01F0C3FE002801D0012008E7744814
:101B90004068072149038843616A084370494860E7
:101BA000084640680002000A218C090608436C4977
:101BB000486018E06A484068072149038843616A21
:101BC000084367494860084640680002000A218CC3
:101BD0000906084362494860606A01F097FE0028E0
:101BE00001D00120DCE6606A400B401C01218140ED
:101BF000C8035B49C968F022114009095A4A515C7F
:101C0000C8405A4908600320FFF79EF949E0E0699F
:101C100000282CD052480068FF2101310843504968
:101C20000860FFF773F9054606E0FFF76FF9401B00
:101C3000022801D90320B3E649480068012149027E
:101C40000840400A0028F0D0454840680721490371
:101C50008843616A08434249486008464068000278
:101C6000000A218C090608433D49486019E03C48B8
:101C70000068FF210131884339490860FFF746F9C0
:101C8000054606E0FFF742F9401B022801D9032070
:101C900086E633480068012149020840400A0028CE
:101CA000F0D1082120680840082839D1606900284F
:101CB0001BD02B484030006901210843284940319E
:101CC0000861FFF723F9054606E0FFF71FF9401BFF
:101CD000022801D9032063E621484030006902212F
:101CE000084040080028F0D01AE01D484030006944
:101CF000400840001A4940310861FFF707F90546DE
:101D000006E0FFF703F9401B022801D9032047E64C
:101D10001348403000690221084040080028F0D1F3
:101D200004212068084004287BD100260C48806BE1
:101D300089060840002805D10948806B08430849F6
:101D4000886301260A480068FF2101310840002805
:101D500022D1074800680843054908600AE00000EE
:101D60000010024088130000F77700084C000020A4
:101D700000700040FFF7CAF8054606E0FFF7C6F816
:101D8000401B642801D903200AE6A6480068FF2109
:101D9000013108400028F1D000BFFF210131A068C7
:101DA000884205D1A048006908439F49086130E096
:101DB000A06800280DD19C480069FF2101318843AB
:101DC00099490861084600690915884396490861E0
:101DD0001FE005210902A06888420DD192480069E0
:101DE0000121890208439049086108460069891564
:101DF00008438D4908610CE08B480069FF210131DF
:101E0000884389490861084600690915884386495D
:101E1000086100BFA068002815D0FFF777F80546D5
:101E200008E02FE0FFF772F8401B8049884201D993
:101E30000320B5E57C480069012149020840400AB9
:101E40000028EFD013E0FFF761F8054607E0FFF741
:101E50005DF8401B7549884201D90320A0E572480E
:101E60000069012149020840400A0028EFD1012EF3
:101E700007D16D484038806B310788436A49403943
:101E8000886300BF202120680840202852D1A06923
:101E900000282BD000BF64484038806801210843E7
:101EA0006149403988600846406B012108435E491A
:101EB000403948635E48006A0121490308435C4990
:101EC000086200BFFFF722F8054606E0FFF71EF89C
:101ED000401B022801D9032062E55348403880683E
:101EE0000221084040080028F0D023E000BF4E48FF
:101EF00040388068400840004B49403988604C4871
:101F0000006A0121490388434949086200BFFEF77E
:101F1000FDFF054606E0FEF7F9FF401B022801D948
:101F200003203DE5404840388068022108404008D1
:101F30000028F0D1A06A002872D03B484038C06821
:101F40000C2108400C2869D0A06A022848D13648E4
:101F50004038006801210906884333494039086048
:101F6000FEF7D4FF054606E0FEF7D0FF401B02282F
:101F700001D9032014E52C484038006801214906A6
:101F80000840400E0028EFD1216BE06A0843616BE6
:101F9000084325494039C968FD221204914308438A
:101FA00021494039C86008460068012109060843F4
:101FB0001D4940390860FEF7A9FF054606E0FEF717
:101FC000A5FF401B022801D90320E9E41648403848
:101FD0000068012149060840400E0028EFD01FE0AC
:101FE0001148403800680121090688430E494039EC
:101FF0000860FEF78BFF054606E0FEF787FF401BF3
:10200000022801D90320CBE40748403800680121A9
:1020100049060840400E0028EFD101E00120BFE44E
:102020000020BDE400700040401002408813000012
:1020300000000140014600BF2020405C012801D182
:102040000220704701222020425400BF022221209A
:10205000425400BFCA200A68506253200A68506286
:1020600000BF08688068202210430A68906000BFA3
:10207000FF200A68506200BF01222120425400BFA5
:1020800000222020425400BF0020DAE710B50446A9
:1020900003F026FE10BD70B504460D46002600BFB5
:1020A0002020005D012801D1022070BD01212020E7
:1020B000015500BF02212120015500BFCA2021681F
:1020C000486253202168486200BFFF2001308542EA
:1020D0002CD1206880682946884321688860206860
:1020E00080682901884321688860FEF70FFF064653
:1020F00015E0FEF70BFF801B7D21C90088420ED939
:1021000000BFFF202168486200BF03212120015544
:1021100000BF00212020015500BF0320C5E7206833
:10212000C068C007C00F0028E3D02EE02068806898
:102130000121490288432168886020688068012164
:102140004903884321688860FEF7E0FE064615E0F3
:10215000FEF7DCFE801B7D21C90088420ED900BF3E
:10216000FF202168486200BF03212120015500BFE4
:1021700000212020015500BF032096E72068C06899
:102180000221084040080028E2D000BFFF2021685B
:10219000486200BF01212120015500BF00212020FD
:1021A000015500BF002080E7F0B506460C461746F3
:1021B000002530684068124908400546FF200004A9
:1021C0002840000CE0701F2000022840000A6070C8
:1021D000A806800EA070072040032840400B207006
:1021E000002F0BD1E07801F04BFCE070607801F03B
:1021F00047FC6070A07801F043FCA0700020F0BDA7
:102200003FFFFF00F0B505460C461746002628683C
:10221000806A6060286800694004400CA0602868FB
:1022200000681249084006463F2000043040000C78
:1022300020707F2000023040000A60707006400E5F
:10224000A070012080053040000CE070002F0BD101
:10225000207801F015FC2070607801F011FC6070AE
:10226000A07801F00DFCA0700020F0BD7F7F7F0002
:1022700010B50446002C01D1012010BD2120005DC5
:10228000002805D1002120200155204600F054F8F7
:1022900002212120015500BFCA2021684862532035
:1022A0002168486200BF204601F004FC002809D0E4
:1022B00000BFFF202168486200BF04212120015592
:1022C0000120DAE7206880681A49084021688860A0
:1022D000216960680843A169084321688968084347
:1022E000216888602168E0680861206800692189A8
:1022F00009040843216808612068C0688021884378
:102300002168C8602068C06C800880002168C864AB
:102310006169E06908432168C96C08432168C864A1
:1023200000BFFF202168486200BF01212120015524
:102330000020A2E7BFFF8FFF10B598B0044604202D
:102340000A9000201490FF2001300C900AA8FFF79B
:1023500001FB002801D0FEF767FB20200190C0029E
:10236000029001A8FFF726F8002801D0FEF75CFBD9
:1023700008480069012189040843064908610022D0
:1023800011460220FEF71AFE0220FEF7FFFD18B0EC
:1023900010BD000040100240FEB504460D46164632
:1023A000002700200190009000BF2020005D012840
:1023B00001D10220FEBD01212020015500BF0221D4
:1023C00021200155002E2AD1206880684021084034
:1023D000002800D002E00020E87000BFE869002873
:1023E00000D100E000BF287801F057FB03046878B3
:1023F00001F053FB00020343A87801F04EFB0343B6
:10240000E878000403432021485D01F046FB000604
:102410000343E86903436869034301932FE020689D
:10242000806840210840002804D0287801F028FB6B
:10243000019002E00020E87000BFE869002805D1A3
:102440002021485D01F01CFB019005E02021485D42
:1024500001F016FB019000BF28780004697809029A
:102460000843A9780843E978090408432021495D15
:1024700009060843E9690843696908430190A969A5
:1024800068680843009000BFCA2021684862532052
:102490002168486200BFFF210131686A884241D14A
:1024A000206880688843216888602068C06880212F
:1024B00008404D4908432168C860FEF727FD0746DC
:1024C00015E0FEF723FDC01B7D21C90088420ED90F
:1024D00000BFFF202168486200BF03212120015571
:1024E00000BF00212020015500BF032062E72068C3
:1024F000C068C007C00F0028E3D001982168C861F8
:1025000000982168486420688068FF2101310843F1
:1025100021688860206880680121090308432168D8
:10252000886043E02068806801214902884321686F
:1025300088602068C068802108402C4908432168D1
:10254000C860FEF7E3FC074615E0FEF7DFFCC01BA2
:102550007D21C90088420ED900BFFF202168486252
:1025600000BF03212120015500BF0021202001557B
:1025700000BF03201EE72068C06802210840400811
:102580000028E2D0019821680862009821688864D8
:10259000206880680121490208432168886020681A
:1025A0008068012149030843216888601048006859
:1025B0000121490408430E4908600846806801214A
:1025C000490408430A49886000BFFF202168486227
:1025D00000BF01212120015500BF0021202001550D
:1025E00000BF0020E6E600007FFEFFFF7FFDFFFF4B
:1025F00000040140F8B504460D461646002700BF0A
:102600002020005D012801D10220F8BD01212020F9
:10261000015500BF022121200155002E09D1687803
:1026200010210840102804D16878EF2108400A30B2
:102630006870002E11D1E87801F02FFA0304687851
:1026400001F02BFA00020343A87801F026FA0343B5
:102650002878400303431F4612E0687801F010FA1F
:102660000746A87801F00CFA0746E8780004697874
:1026700009020843A9780843297849030843074613
:1026800000BFCA202168486253202168486200BF09
:10269000204601F00FFA00280ED000BFFF2021686D
:1026A000486200BF04212120015500BF00212020E5
:1026B000015500BF0120A8E719483840216848604B
:1026C0002068C068802188432168C86020688068CD
:1026D00020210840002813D1204600F0CDF8002822
:1026E0000ED000BFFF202168486200BF04212120D6
:1026F000015500BF00212020015500BF012084E7C3
:1027000000BFFF202168486200BF01212120015540
:1027100000BF00212020015500BF002075E7000008
:102720003FFFFF00F8B504460D461646002700BFE0
:102730002020005D012801D10220F8BD01212020C8
:10274000015500BF022121200155002E1BD1206818
:10275000806840210840002800D002E00020E87096
:1027600000BF287801F099F90304687801F095F921
:1027700000020343A87801F090F90343E8780004CD
:1027800003431F4618E02068806840210840002865
:1027900004D0287801F074F9074602E00020E870C0
:1027A00000BF28780004697809020843A978084323
:1027B000E97809040843074600BFCA202168486237
:1027C00053202168486200BF204601F073F90028B9
:1027D0000ED000BFFF202168486200BF04212120E5
:1027E000015500BF00212020015500BF0120A4E7B2
:1027F00020483840216808602068806801218904E9
:102800008843216888602969E868084321688968E5
:102810000843216888602068C06880218843216857
:10282000C8602068806820210840002813D1204615
:1028300000F022F800280ED000BFFF202168486277
:1028400000BF04212120015500BF00212020015597
:1028500000BF012071E700BFFF202168486200BF70
:1028600001212120015500BF00212020015500BF7A
:10287000002062E77F7F7F0070B504460025206856
:10288000C068A02188432168C860FEF73FFB054669
:1028900008E0FEF73BFB401B7D21C900884201D9BF
:1028A000032070BD2068C068202108400028F0D0B7
:1028B0000020F6E710B50446002C01D1012010BD20
:1028C0005120005D002805D10021502001552046EF
:1028D00000F037F80221512001552068006840219E
:1028E000884321680860A16860680843E16808437C
:1028F000216908436169084301225202A16911401C
:102900000843E1690843216A0843A16A0843216832
:102910000860A069000C04210840616A084321682E
:1029200048602168E06A08612068C06991008843B6
:102930002168C861002060650121512001550020F7
:10294000BDE77047F8B504460E4617461D46002001
:1029500000905120005D012803D05120005D222805
:1029600073D1002E03D0002F01D0002D01D1012002
:10297000F8BD00BF5020005D012801D10220F7E71B
:1029800001215020015500BF5120005D012802D1D6
:1029900032215120015500206065A763A587E58796
:1029A0002663A586E586A064E06401214903A06A48
:1029B00088420DD100BF2068006888432168086004
:1029C000206800680121490308432168086000BFAE
:1029D0002068006840210840402804D02068006832
:1029E0000843216808600121C902E06888427DD15E
:1029F0006068002807D0FF210531606888420CD14B
:102A0000E08E012809D1206B00882168C860206B06
:102A1000801C2063E08E401EE086E08E002820D1DE
:102A200001214903A06A884205D120680068491045
:102A3000084321680860002201212046069B01F01E
:102A4000B7F8002802D0032092E738E12068C06878
:102A5000A16B0880A06B801CA063E08F401EE08704
:102A6000D7E035E0002202212046069B01F0A0F8C5
:102A7000002801D003207BE7206B00882168C86014
:102A8000206B801C2063E08E401EE086E08E0028D4
:102A90000AD101214903A06A884205D12068006853
:102AA0004910084321680860002201212046069B46
:102AB00001F07EF8002801D0032059E72068C068A3
:102AC000A16B0880A06B801CA063E08F401EE08794
:102AD000E08E0028C6D160680028C1D10022012103
:102AE0002046069B01F064F8002800E00DE001D0CC
:102AF00003203DE72068C068A16B0880A06B801CA4
:102B0000A063E08F401EE08783E06068002807D064
:102B1000FF210531606888420BD1E08E012808D181
:102B2000216B481C206308782168C860E08E401E35
:102B3000E086E08E00281CD101214903A06A88426A
:102B400005D1206800684910084321680860002208
:102B500001212046069B01F02BF8002801D003201C
:102B600006E72068C068A16B0870E08F401EE08710
:102B70004FE034E0002202212046069B01F018F8C5
:102B8000002801D00320F3E6216B481C206308785D
:102B90002168C860E08E401EE086E08E00280AD1E1
:102BA00001214903A06A884205D1206800684910C4
:102BB000084321680860002201212046069B00F09E
:102BC000F7FF002801D00320D2E62068C068C1B218
:102BD000A26B501CA0631170E08F401EE087E08E56
:102BE0000028C7D16068002813D1002201212046A7
:102BF000069B00F0DDFF002801D00320B8E6206826
:102C0000C068C1B2A26B501CA0631170E08F401E5F
:102C1000E08701214903A06A884213D100220121E3
:102C20002046069B00F0C4FF002805D0606D0221FD
:102C30000843606503209BE62068C06881B200916C
:102C400068460088012280212046069B00F0B0FFE4
:102C5000002805D0606D202108436065032087E6C9
:102C60000121512001554903A06A884220D12068E2
:102C70008068102108400009002819D0606D0221E9
:102C80000843606500BF2068006809038843216825
:102C90000860206800680121490308432168086032
:102CA00000BF00BF00215020015500BF01205FE69A
:102CB00000BF00215020015500BF002058E602202F
:102CC00056E610B50446002C01D1012010BDA069C4
:102CD000002800D000E000BF6920005D002805D179
:102CE000002168200155204600F02CF8242169209D
:102CF0000155206800684008400021680860606A4B
:102D0000002802D0204603F009F9204603F0B8F964
:102D1000012800D1DAE7206840680921C902884308
:102D200021684860206880682A218843216888607B
:102D3000206800680121084321680860204603F0EC
:102D400065F9C3E710B504460448806B01214904C6
:102D500008430249886304F0DBFB10BD0010024009
:102D6000FEB504460D4616461F4600200190692018
:102D7000005D20286AD1002D01D0002E01D1012054
:102D8000FEBD01210903A068884208D120690028FE
:102D900005D1E807C00F002801D00120F0E700BFEF
:102DA0006820005D012801D10220E9E701216820A7
:102DB000015500BF0020E066212169200155FEF782
:102DC000A5F80190502006535220065325E05220CA
:102DD000005B401E81B252200153009700228021E7
:102DE0002046019B03F044FB002801D00320C7E7E5
:102DF00001210903A06888420BD12069002808D16D
:102E00000295029D2888C005C00D21688862AD1C0E
:102E100003E028786D1C216888625220005B00283E
:102E2000D5D10097002240212046019B03F020FBD2
:102E3000002801D00320A3E720216920015500BF0D
:102E400000216820015500BF002099E7022097E784
:102E500000B585B01F480078002838D101201D49F1
:102E600008701D481D49086000211C4801640320AA
:102E700080071A49486000211848C1610121816317
:102E80000021816181600221C16301210161002172
:102E9000C16001624162C16204214161002101639C
:102EA0000F48406B0121490208430D4948630B4814
:102EB000FDF7D6FD0320019000200290032003902F
:102EC0006A4610210520000700F02EF800BF05B06B
:102ED00000BD00006A000020002401408C05002095
:102EE0000010024001460020FF2212020A40002A80
:102EF00001D008221043094A0A40002A01D00422C6
:102F00001043074A0A40002A01D002221043054A12
:102F10000A40002A01D0012210437047F0F000005F
:102F2000CCCC0000AAAA0000F8B505460E4614460F
:102F300000BF3549681A8D422FD008DC3348281865
:102F400000280CD001218902401A44D116E0012149
:102F50008902401A30D08900401A3CD13CE000BFC1
:102F60002B48C06A012108432949C8620846C06A43
:102F7000C007C00F009000BF00BF3CE000BF244866
:102F8000C06A022108432249C8620846C06A022179
:102F90000840009000BF00BF2DE000BF1C48C06A81
:102FA000042108431A49C8620846C06A042108403F
:102FB000009000BF00BF1EE000BF1548C06A082196
:102FC00008431349C8620846C06A082108400090B7
:102FD00000BF00BF0FE000BF00BF0D48C06A8021E6
:102FE00008430B49C8620846C06A80210840009027
:102FF00000BF00BF00BF00BF00BF266021462846BB
:10300000FDF77EFEF8BD000000080050000000B093
:103010000010024070B505462846FFF763FF0446DE
:10302000A00004490858002803D0A100014A5058C4
:10303000804770BD1C020020F8B50D4616461C46A0
:103040002846FFF74FFF0746002C0FD0B8000A496B
:103050000C50284600F02AFB0090002231460098D0
:10306000FDF7ACFF0098FDF791FF03E00020B900E9
:10307000014A5050F8BD00001C02002070B5054602
:103080000E461446E2B231462846FDF739FF70BDC0
:1030900010B50F480078002819D1FFF7D9FE0D4967
:1030A0000868804700F060FA00F0A8F804F00EFA13
:1030B0000020FDF7A9FB0120FDF7A6FB0220FDF78C
:1030C000A3FB0320FDF7A0FB01200149087010BD00
:1030D0006B0000208477000870B5044600250026A8
:1030E000204600F025FA054600F07EF8064600E08E
:1030F00000BF00F079F8801BA842F9D370BD000032
:10310000F8B504460D4600BF002229462548FFF7C2
:1031100079F800BF6F68002221462248FFF744F883
:10312000002229461F48FFF76DF86868B842F1D1C0
:10313000E0781D494843C01C8608E078C117890F14
:10314000091889108900411A01D1184900E018496D
:1031500000916178491E3D225143481CC10F091856
:103160004A106178491E4B000099D9408907890FA0
:10317000511A8E19A078401E86190E484643A97828
:1031800068783C22504309182878E1221201504304
:1031900008188619B002084A6968511A461830465C
:1031A000F8BD00005C020020B50500005055440049
:1031B000A0AA990080510100FF030000032070477E
:1031C0000148006870470000A802002010B586B0D2
:1031D00001A96846FFF794FF044602480068201AD8
:1031E00006B010BDA802002010B586B001A968463F
:1031F000FFF786FF0446204606B010BD10B507480D
:103200000078002808D100F063F800F057F800F0CB
:1032100097F801200149087010BD000054000020FB
:1032200010B5124C0021042000F020FA20688068BC
:10323000012109030840000B002815D02068C06850
:1032400009110840000A00280ED02068C0688021BB
:103250000840074908432168C86001204004054927
:1032600048612046FEF712FF10BD00005C020020FE
:103270007FFEFFFF0004014010B50446FFF7A6FFE4
:10328000211A0D4A0020105EC01C814204D9002181
:10329000042000F0EBF903E00121042000F0E6F93E
:1032A00000F0C8F9012803D103480021415E641AE7
:1032B000204600F053F810BD5600002010B5FF2145
:1032C00001310248FEF7E7FE10BD00005C0200205D
:1032D00000B587B0174818490860002048601F21D2
:1032E000154881601549C160002101618161C1619A
:1032F000FEF7BEFF00216846C17101214171817155
:103300000171002201A90C48FFF774F900216846F9
:10331000017241728172C172002003900690059083
:10332000002202A90448FFF7FDF90348FEF782FED8
:1033300007B000BD002800405C020020FF03000031
:1033400010B5054908461430FFF7DAFE0249091F97
:1033500008600846006810BDAC020020F0B589B0D6
:10336000044600200890079000260027002514221C
:10337000574902A8FCF716FF5548001F80690190C5
:1033800000F0B4F853490398081A80B2089021401D
:103390000898081880B20890A40A6846857903E066
:1033A0004D48241A681C85B24B488442F8D26846BE
:1033B000077A04E0E1200001241A781C87B2E1209A
:1033C00000018442F6D26846467A02E03C3C701C1A
:1033D00086B23C2CFAD26846807A001980B20790F7
:1033E00009E0012189020898401A80B208900798E4
:1033F000401C80B207900121890208988842F0DAC7
:1034000005E007983C3880B20790701C86B2079898
:103410003C28F6D204E030463C3886B2781C87B2AD
:103420003C2EF8D204E03846183887B2681C85B2C2
:10343000182FF8D26946C879C117890F0918891061
:103440008900411A10D168464079401E2349085C22
:10345000A84219DA68464079401E0A46115C28469F
:10346000FCF75CFE8DB20FE068464079401E1C49B7
:10347000085CA84208DA68464079401E0A46115C9A
:103480002846FCF74BFE8DB212490898081A1549D8
:103490004860052040068861079888704E700F705C
:1034A0000846203005706846C07AC8700020C861A0
:1034B0004861FF20013048620020C8600861002296
:1034C0000948FEF769FF00BF00BF09B0F0BD00006A
:1034D000AC020020FF0300008051010024780008A6
:1034E00018780008800200205C02002010B508480F
:1034F0000068C068802108400649084304490968FB
:10350000C860FF2101310248FEF7C5FD10BD000073
:103510005C0200207FFEFFFF70B5064630467D212D
:1035200003F00BF8044680220023FCF70BFE70BD6D
:1035300070B506463046802102F0FFFF04467D222A
:103540000023FCF7FFFD70BD01B582B00020C04331
:10355000012301AA02A900900248FFF7F3F9684687
:1035600080880EBDC402002000B585B014216846D5
:10357000FCF731FE284829490860294802F0AAFAD8
:103580002649C861002125488160FF200530234974
:1035900048600021214801614161C160816201628E
:1035A000012149028161002141621E48406B0121D5
:1035B000090308431B4948631848FFF77BF90028B3
:1035C00001D0FDF731FA0220019002900320039010
:1035D000002004906A4608211348FFF7A5FC6A46BC
:1035E000402105200007FFF79FFC6A468021052047
:1035F0000007FFF799FC0120019002906A46C10381
:1036000005200007FFF790FC0122D10305200007E9
:10361000FFF734FD05B000BD00300140C4020020BA
:1036200080969800001002400004005000E000BFA7
:10363000FDE7000000BFEFF31082114672B6094AA1
:103640001268002A01D0002006E0074A1268002A0A
:1036500001D0012000E0022000BF81F3108800BFEC
:10366000704700006C0000207000002010B50A4672
:1036700000BFEFF31083194672B6002A07D0012A63
:103680000BD1094B1B680343074C236006E0064B34
:103690001B688343044C236000E000BF00BF00BFF1
:1036A00081F3108800BF10BD6C0000200146FF228E
:1036B0000132881A91423ED012DC102937D008DC42
:1036C00001292DD002292CD004292CD008292DD154
:1036D0002AE020292CD040292BD0802926D129E08E
:1036E0000F231B02C21A984229D00DDCFF38013883
:1036F000002821D0FF38FF38023800281DD00122D1
:103700009202801A12D119E001200003101A17D07A
:1037100001225203801A14D05200801A06D111E0FF
:1037200000BF0520704700BF0620FBE700BF00BFB9
:1037300000BF00BF00BF00BF00BF00BF00BF00BF91
:1037400000BF00BF0720EDE77047000010B500285C
:1037500019DA1A4A03071B0F083B9B089B00D25833
:103760008307DC0EFF23A3409A438B071B0E8407BD
:10377000E40EA3401A43114B0407240F083CA4088D
:10378000A4001A5118E00E4A03231B02D218830822
:103790009B00D2588307DC0EFF23A3409A438B077C
:1037A0001B0E8407E40EA3401A43054B0324240296
:1037B0001B198408A4001A5110BD00001CED00E084
:1037C00000E100E0F8B506460F4614461D460D49D7
:1037D000486B80470C480780028831460B48FCF74D
:1037E000E1FC60B20A4908700A48057001200A49E4
:1037F00008702A46214609A003F006FF0020FDF7C5
:1038000077F8F8BD847700085E0000201C030020D4
:103810006400002065000020590000205273736985
:1038200056616C75653D25642064426D2C20536E95
:103830007256616C75653D25642E2E2E00000000C9
:1038400010B50549486B804703200449087004A05F
:1038500003F0DAFE10BD0000847700085900002054
:103860004F6E52784572726F720A0D0010B503499F
:10387000486B804702200249087010BD8477000819
:103880005900002010B50A49486B80470948007864
:10389000012803D104200849087008E000200649E7
:1038A00008700120054908600020FDF721F810BDCF
:1038B0008477000858000020590000206000002094
:1038C00010B50649486B804705200549087005A0DA
:1038D00003F09AFE0220FDF70BF810BD8477000874
:1038E000590000204F6E547854696D656F75740AE5
:1038F0000D00000010B50120FCF7FAFF014802F0AE
:1039000075FA10BDEC0300207047000010B50146A9
:10391000002300222048C068F0242040002829D13C
:103920001D48806B012424072040002806D01B4836
:1039300000680324E4022040034613E01648806B2D
:10394000012424072043144CA06314480068032476
:10395000E402204003461048806B01242407A04362
:103960000D4CA0630320C002834203D1C0008142FA
:1039700000D101220A480068400840001043084C6A
:10398000206020460068C007C00F904201D001208F
:1039900010BD0020FCE70000001002400070004055
:1039A0000020024070B590B005460E461446002037
:1039B0000F9014210AA8FCF70EFC28216846FCF79A
:1039C0000AFC142108A8C1771021417731218177A1
:1039D000602C03DC602E01DC052D04DD20A003F04B
:1039E00013FEFDF721F801220FA92448FEF702FE7D
:1039F000002801D0FDF718F8082108A8017200215D
:103A000041728172C17200200D900E9001220AA9AC
:103A10001A48FEF787FE002801D0FDF705F8FF20C1
:103A200001300990012108A8017000200790C80703
:103A300005900F200006069000216846C1700821FD
:103A40000170002141708470012269460B48FEF725
:103A5000A3FC002801D0FCF7E7FF10B070BD000008
:103A600072746320616C61726D2074696D65207081
:103A70006172616D206572726F720000EC0500204A
:103A8000014600BFF020084000110A2358430246B7
:103A90000807000F8018C0B270470146002203E0FB
:103AA000521C08460A38C1B20A29F9D21007000E82
:103AB0000843704770B5044600252068C06840215F
:103AC0000840002815D1401E2168C860FDF71EFA85
:103AD000054608E0FDF71AFA401B7D21C90088421F
:103AE00001D9032070BD2068C0684021084000282B
:103AF000F0D00020F6E710B5FFF792FB10BD0000F4
:103B0000F8B5092000F0F6FF0646062000F0F2FFA7
:103B10000704072000F0EEFF00020743082000F032
:103B2000E9FF07433D4600BF280A0202A91A1E4AC0
:103B3000034653434A438032120A9C1800BF0021B7
:103B4000092001F095FF3B2000F0D4FFBF21084081
:103B50000746403739463B2001F08AFF00BF3B2033
:103B600000F0C8FF202108402028F8D00F4801F0BD
:103B70001FF93B2000F0BEFFBF2108400746403739
:103B800039463B2001F074FF00BF3B2000F0B2FF3C
:103B9000202108402028F8D03146092001F068FF94
:103BA000204601F005F9F8BD093D000000A1BC3335
:103BB000FFB581B004460E461D460027FDF7A6F965
:103BC0000746039800283FD133E0681C002830D016
:103BD000002D04D0FDF79AF9C01BA84229D920680E
:103BE0004068E021884321684860206800684021DF
:103BF00088432168086001214903A06A88420DD1E9
:103C000000BF206800688843216808602068006859
:103C10000121490308432168086000BF01215120A8
:103C2000015500BF00215020015500BF032005B001
:103C3000F0BD206880683040B04201D1012000E032
:103C400000200028C1D03DE032E0681C00282FD0C1
:103C5000002D04D0FDF75AF9C01BA84228D92068CE
:103C60004068E0218843216848602068006840215E
:103C700088432168086001214903A06A88420DD168
:103C800000BF2068006888432168086020680068D9
:103C90000121490308432168086000BF0121512028
:103CA000015500BF00215020015500BF0320BEE791
:103CB000206880683040B04201D1012000E000203F
:103CC0000028C2D10020B2E77047000000B585B0DF
:103CD00014216846FCF77FFA03200190002002902F
:103CE000032003906A46022105200007FFF71CF914
:103CF0000022022105200007FFF7C0F96A460221D1
:103D00000948FFF711F9002202210748FFF7B6F929
:103D10006A4604210448FFF707F9002204210248FB
:103D2000FFF7ACF905B000BD0008005000B585B044
:103D300014216846FCF74FFA012001900020029000
:103D4000032003906A46022105200007FFF7ECF8E4
:103D50000022022105200007FFF790F96A460221A0
:103D60000948FFF7E1F8002202210748FFF786F92A
:103D70006A4604210448FFF7D7F8002204210248CC
:103D8000FFF77CF905B000BD00080050014908604C
:103D900070470000040000200146012070470146E2
:103DA0000E2901DD802070470020FCE710B5034993
:103DB000096848688047801C10BD0000040000208E
:103DC000014800797047000078010020F3B597B0F2
:103DD000002016901798002802D0012871D171E0B8
:103DE0009849C869FCF7B8FB0F910E901898FCF73A
:103DF000B3FB07910690302000F07CFEF921884348
:103E0000002802D00020904901E0002001460591E1
:103E10000490272000F06EFEF8218843411C894859
:103E2000008C08180190FCF783FB039102908548F1
:103E3000001D807F012802D10020034601E0002000
:103E4000814B02460193009003990298FCF7DEF93A
:103E50000646059B049AFCF7D9F90446079B069A87
:103E6000FCF7D4F90991089076480C30007E0128BF
:103E700003D100200121890701E00020014604460A
:103E800022460B4609990898FCF7C0F900226F4BAF
:103E90000B910A90FCF76CFA0D910C900F9B0E9A07
:103EA000FCF7CEFA00226A4B11911090FCF760FAF1
:103EB0001391129003F0BCFA15911490FCF75AFB81
:103EC0001690BAE000210C460D465E48406C07286B
:103ED00004D0082805D0092809D105E000245D4D4B
:103EE00005E000245C4D02E000245C4D00BF00BFF3
:103EF000544940310A7A012191400846FCF718FBE9
:103F0000064632460B4620462946FCF799FA15919B
:103F1000149000204C49159B149AFCF791FA1391C8
:103F2000129048494031C889FCF716FB064600222A
:103F30004B4BFCF76BF907910690139B129AFCF719
:103F400017FA119110903F494031497B081DFCF749
:103F5000EFFA079106903B498A6C4031097B0029B2
:103F600001DD022100E00021511A8800FCF7F4FA7B
:103F7000019100901899CA003249896C8900511A40
:103F80000A461C322F494031897C090152182D49BB
:103F90004031097C002901D0142100E00021501A91
:103FA000FCF7DAFA0646019B009AFCF749FA0391FE
:103FB000029002F057FF05910490079B069AFCF7C8
:103FC000D7F90F910E90002213460F990E98FCF727
:103FD000EFFA02D20F990E9801E000200146064642
:103FE00032460B4600201949FCF710F90D910C9050
:103FF000139B129A0D990C98FCF7BAF90B910A9041
:104000000B9B0A9A11991098FCF700F909910890F6
:1040100000220F4B09990898FCF7AAF90646114AA5
:10402000114BFCF7F3F80591049002F07FFF079124
:104030000690FCF79FFA169000BF00BF169819B0C3
:10404000F0BD0000780100200000F03F000020409B
:1040500000408F408084FE4080840E4180841E4159
:10406000000011402B8716D9CEF7EF3F052070478F
:1040700070B50546204805602049214801F0FDFD46
:104080001E49204801F0F9FD1C491F4801F0F5FDCB
:104090001E48006801680120884700F089FDFFF78D
:1040A0002FFD002000F01AFF1848006881681848AA
:1040B0008847002412E061006118164A505C00F045
:1040C000C1FE6200A218134BD21891786200A218A8
:1040D000D218507801F0CCFC601CC4B2102CEAD38A
:1040E000002000F0AFFE00200B4908710749096865
:1040F00048688047801C70BD00000020A54900086A
:10410000E0010020F401002008020020040000204B
:1041100008000020A47600087801002000B585B0D2
:1041200014216846FCF757F80D48019000200290D2
:104130006A4610210B48FEF7F7FE6A46022109483D
:10414000FEF7F2FE6A4601210648FEF7EDFE6A46DA
:10415000012149030448FEF7E7FE05B000BD000059
:1041600000001110000400500008005000B585B098
:1041700014216846FCF72FF81548FFF707FE15488D
:10418000019001200290032003906A4610211248FA
:10419000FEF7CAFE6A4602210F48FEF7C5FE6A46D0
:1041A00001210D48FEF7C0FE6A46012149030B4874
:1041B000FEF7BAFE01200190002002906A4601211C
:1041C000090305200007FEF7AFFE05B000BD0000A3
:1041D00020000020000011100004005000080050D2
:1041E00010B50446002210210B482368FEF724FF77
:1041F0000022022108486368FEF71EFF0022012109
:104200000548A368FEF718FF00220121490303486F
:10421000E368FEF711FF10BD0004005000080050D5
:10422000FEB507460C4615461E46012002900020AA
:1042300001900090384600F005FE204600F0B8FDE1
:10424000052000F04BFE0120FCF788FB01F000FD8B
:10425000009009E0384600F081FC01900198A842E6
:1042600002DD0020029004E0009801F0F9FCB04269
:10427000F0D300BF01F0B8F90298FEBDF8B50020F8
:104280000090DC480079012802D002287ED189E123
:10429000D8484079002802D0012878D1CCE0D54810
:1042A0000C30007E012844D13F2000F023FC009018
:1042B000694608780221084002283AD00B213E20A6
:1042C00001F0D6FB10213F2001F0D2FBCA4801F0DB
:1042D000C9FDC8480C30807E002806D1C74801F0CF
:1042E000C1FD0020C34908710CE00D2000F002FC64
:1042F00040210843044621460D2001F0B9FBBF4888
:1043000001F074FDBE480068002808D0BC48006871
:104310000069002803D0BA4909680869804700216C
:10432000B448243001730C304170303881874187A4
:1043300036E1B048408F00282ED1AE48808F00284B
:104340002AD1AC48001D807F002805D10121A94851
:104350003A3000F0F9FB05E0322000F0CBFB0146DB
:10436000A4484187A34A3032937A127B9A1AD1B279
:10437000A04A928FA34BD01800F0E6FB9D48418FD6
:10438000808F091A9B48808F081801E02FE106E111
:1043900081B29848818715E0964A3032937A127B31
:1043A0009A1AD1B2934A928F964BD01800F0CCFB58
:1043B0009048418F808F091A8E48808F081881B2EB
:1043C0008C4881878C4801F04DFD8A480C30807EF6
:1043D000002805D187490871884801F043FD0CE0A9
:1043E0000D2000F087FB40210843044621460D20A4
:1043F00001F03EFB814801F0F9FC8148006800288B
:1044000010D07F480068806800280BD07948303091
:10441000022282563038418F794800680023846830
:104420007848A04700217348243001730C30417054
:10443000303881874187B3E000254021122001F008
:1044400017FB122000F056FB0090694608782021E7
:10445000084020281AD1122001F00AFB654840309C
:10446000807D002801D163490871634801F0FAFC9E
:1044700063480068002808D0614800680069002887
:1044800003D05F4909680869804789E0192000F076
:1044900031FB41B257484430017701461C20085691
:1044A00080210840002808D052484430007FC04393
:1044B000401C0006850E6D4203E04E484430007FEC
:1044C00085101A2000F016FB0446002D18DA494822
:1044D00080684D49884209D920469D3821114018ED
:1044E000401901B24348603041801FE02046A438A3
:1044F00021114018401901B23E486030418015E05A
:104500003C4880684049884208D920469D3821119E
:10451000401801B237486030418007E02046A43897
:104520002111401801B2334860304180132000F05F
:10453000E1FA01462F4860300171102000F0DAFAEC
:10454000064631460D2001F093FA2A486030017981
:104550002C4800F0F9FA27484030807D002801D12E
:1045600024490871244801F07DFC25480068002892
:1045700014D023480068806800280FD01D484430BC
:104580001C23C3561C300222825E01791C4800683D
:1045900086681C48B0471DA003F036F800E000BF55
:1045A00000BF25E01C4801F05DFC1248407900285E
:1045B00007D0012804D10821122001F059FA00BFC8
:1045C00000BF00200B4908710D48006800280BD07F
:1045D0000B4800680068002806D009490968086887
:1045E00080470EA003F010F800BF00BF00E000BF3E
:1045F00000BFF8BD78010020F4010020080200206F
:10460000000000207800002040DD4A1F7278446FCF
:104610006E650A0D00000000E00100207478446F10
:104620006E650A0D0000000010B55C480079012895
:1046300002D0022870D170E058484079002802D09A
:10464000012866D14AE05548408F002814D15348CC
:10465000808F002810D15148001D807F002805D18F
:1046600001214E483A3000F06FFA05E0322000F0A8
:1046700041FA0146494841874848418F808F091ACD
:1046800046483030807B814211DD444A3032917B94
:10469000303A928F424BD01800F056FA3F48818F43
:1046A0003030807B081881B23C48818715E03B4A56
:1046B0003032937A127B9A1AD1B2384A928F384BA1
:1046C000D01800F041FA3548418F808F091A3348DD
:1046D000808F081881B2314881871BE0314801F092
:1046E000C1FB8021122001F0C3F900202B49087181
:1046F0002D48006800280BD02B480068C0680028AF
:1047000006D029490968C868804728A002F07CFFC4
:1047100000E000BF00BF3EE03CE0204840790028B8
:1047200002D0012833D131E01C48418F808F091A13
:104730001A483030C07B814211DD184A3032D17BBB
:10474000303A928F164BD01801F0BAF91348818F86
:104750003030C07B081881B21048818715E00F4ABD
:104760003032937A127B9A1AD1B20C4A928F0C4B48
:10477000D01801F0A5F90948418F808F091A074820
:10478000808F081881B20548818701E000E000BFF2
:1047900000BF00E000BF00BF10BD00007801002096
:1047A00078000020F4010020000000207278546995
:1047B0006D654F75740A0D0070B500244A48007984
:1047C000012802D002287DD161E0474840790028C5
:1047D00002D0012858D13AE0012143482430017326
:1047E000007B012832D140483030407800282DD15C
:1047F0003E4801F037FB01213B4830304170112029
:1048000000F078F94010404241B2374830308170B2
:104810001B2000F06FF905021C2000F06BF9054326
:104820002C4600BF200A0202A11A314A0346534314
:104830004A438032120A9B182B4A536300BF0C2054
:1048400000F058F941112848303001721DE0264827
:104850004030C07C012816D10221122001F008F955
:104860002448006800280ED02248006840690028CB
:1048700009D01C2000F03EF98506AD0E1D480068E9
:1048800041692846884700E000BF00BF2AE016487B
:104890004079002802D0012820D100E01FE0124812
:1048A0004030C07C012818D10221122001F0E0F82C
:1048B00010480068002810D00E48006840690028A1
:1048C0000BD000E00DE01C2000F014F98506AD0EC1
:1048D0000848006841692846884700E000BF00BFDB
:1048E00000E000BF00BF70BD78010020080200207A
:1048F000093D00000000002010B51C484079002848
:1049000002D001282ED100E02DE0122000F0F2F8B4
:10491000C007C00F002812D00521122001F0A8F80E
:104920001348006800281CD01148006880690028DE
:1049300017D00F48006881690120884711E00421E1
:10494000122001F095F80A480068002809D00848AC
:1049500000688069002804D005480068816900204B
:10496000884700E000BF00BF10BD000078010020B4
:10497000000000200A484079002802D001280BD10D
:1049800009E007482430007B002803D101210448B6
:104990002430017301E000E000BF00BF7047000059
:1049A0007801002010B53F480079012802D0022884
:1049B00074D13BE03B484079002829D10021394897
:1049C000243001730C3041703038818741870B21CE
:1049D0003E2001F04DF810213F2001F049F8314808
:1049E0000C30807E01280DD10D2000F083F840218D
:1049F0000843044621460D2001F03AF82A4801F008
:104A0000F5F905E0002027490871274801F02AFA46
:104A100026480068002808D024480068C06800289C
:104A200003D022490968C868804738E000F0C0F820
:104A3000FFF766F8002000F051FA002412E0610050
:104A400061181B4A505C00F0FDF96200A218184B77
:104A5000D21891786200A218D218507801F008F8A4
:104A6000601CC4B2102CEAD3002000F0EBF90D4911
:104A70004031087F00F06AFA00200A4908710B48AB
:104A80000068002808D0094800684068002803D062
:104A9000064909684868804701E0FFE700BF00BF9A
:104AA00010BD000078010020080200200000002056
:104AB000A476000870B50025012000F0C3F9FF219D
:104AC000112000F0D5FF052000F008FA00240BE0CB
:104AD0000120FBF743FF2C2000F00CF8C007C00FAB
:104AE000A0400543601CC4B2202CF1DB00F07CFD2B
:104AF000284670BD38B5044601226946204600F0BC
:104B000003F86846007838BDF8B505460E461746E6
:104B100000220121C90305200007FEF7AFFA68064D
:104B2000400EFEF711FD002405E00020FEF70CFD0D
:104B30003055601CC4B2BC42F7DB0122D103052012
:104B40000007FEF79BFAF8BD70B504460D462A46ED
:104B500021460020FFF7D8FF70BD000070B5044665
:104B60000025002C02D0012C17D105E01120FFF701
:104B7000C1FF4010454213E00B4880680B49884252
:104B800005D91B20FFF7B6FF05469D3D04E01B201D
:104B9000FFF7B0FF0546A43D02E00025ED4300BF4E
:104BA00000BF284670BD00007801002040DD4A1F8C
:104BB00000B585B014216846FBF70DFB012001907C
:104BC00000200290032003906A4601210B48FEF763
:104BD000ABF9002201210948FEF750FA0120FBF74A
:104BE000BDFE002001906A4601210448FEF79CF9B1
:104BF0000620FBF7B3FE05B000BD00000008005022
:104C000073B50446002548484079002802D00128A1
:104C10003CD13CE000214448818768460179424804
:104C20004187001D807F002804D1012101A800F0E8
:104C300047FF04E068460179322000F019FF68461A
:104C40000079002809DD68460079402805DC6846BF
:104C5000017935483030C17309E068460279214650
:104C6000324802F0D9FB20212F483030C1732E4842
:104C70003030C17B204600F023FF2B48818F30303D
:104C8000C07B081881B228488187856A47E026489A
:104C90004030407D01280ED13320FFF72BFFBE218D
:104CA000084006463146332000F0E2FE19213B2041
:104CB00000F0DEFE0DE03320FFF71CFFBE210840B0
:104CC000461C3146332000F0D3FE1D213B2000F06E
:104CD000CFFE684601791448603001716846017959
:104CE000222000F0C5FE00210E2000F0C1FE0021B0
:104CF0000D2000F0BDFE0120FFF7FCFEF8218843E7
:104D0000002804D100F084FC0120FBF727FE684650
:104D10000179204600F0D4FE0348856D00BF00BF36
:104D2000284600F089FC7CBD780100207800002036
:104D300070B504460920FFF7DDFE0546032C06D0BA
:104D4000052C18D0062C17D0072C13D115E0802085
:104D50002840802805D1012202210E48FEF78EF955
:104D600004E0012204210B48FEF788F901200A49DA
:104D700008700CE000BF00BF00BF002006490870AB
:104D80000122022105200007FEF778F900BF00BFCD
:104D900070BD0000000800507801002010B50446E6
:104DA000002C02D1FEF7C2FF01E0FEF78FFF10BD1D
:104DB000F8B505461148856000BF11492846FBF744
:104DC00097F906460E4870432F1A39020D4A881883
:104DD0000B49FBF78DF93102441800BF2002010E88
:104DE000062000F045FE2004010E072000F040FEE2
:104DF000E1B2082000F03CFEF8BD00007801002080
:104E0000093D0000841E000070B504460D46204692
:104E100000F018F8002C02D0012C0ED108E0084850
:104E2000807F002803D12946322000F021FE04E0D3
:104E30002946232000F01CFE00BF00BF70BD00000B
:104E40007C01002070B504460120FFF753FE80214D
:104E50000840002803D001211F48417102E00021D1
:104E60001D4841711C484079A04200D170BD1A48CC
:104E700044714079002802D0012814D000BF00F00E
:104E8000B3FB0120FFF736FE45066D0E29460120D3
:104E900000F0EEFD0021402000F0EAFD302141202D
:104EA00000F0E6FD15E000F09FFB0120FFF722FE79
:104EB0004006400E054680352946012000F0D8FD09
:104EC0000021402000F0D4FD0021412000F0D0FD61
:104ED00000BF00BF00BFC9E77801002070B50446DD
:104EE000002C15D10120FFF705FEF82108402043D2
:104EF00005462946012000F0BBFD13480068016902
:104F0000012088471048006801680020884719E0A0
:104F10000D4800680168012088470B480068016956
:104F200000208847084800684169204688470120DA
:104F3000FFF7E0FDF82108402043054629460120FF
:104F400000F096FD70BD00000400002010B504467E
:104F50000120FFF777FF07480477012C04D13421A3
:104F6000392000F085FD03E01221392000F080FD9A
:104F700010BD0000B801002070B5044600250026D1
:104F80000920FFF7B7FD05464D20FFF7B3FD0646A4
:104F9000E0B2FEF704FF6906490E084305462846BD
:104FA0008F210840054670358020284080282CD16C
:104FB000112C04DD3046F8210840C61D03E03046C0
:104FC000F8210840061D7007400F07280ED1052C58
:104FD00000DA0524142C00DD14242846F0210840B2
:104FE000611F0907090F084305461EE0022C00DA7D
:104FF0000224112C00DD11242846F0210840A11EB6
:105000000907090F084305460FE00020C04384420A
:1050100000DA04460E2C00DD0E242846F02108405C
:10502000611C0907090F084305462946092000F0BD
:105030001FFD31464D2000F01BFD70BD70B50446CC
:10504000002598484079002802D0012833D133E068
:1050500094480C30857E4020FFF74CFD8006800E82
:10506000C32108400C21084306463146402000F089
:10507000FFFC4120FFF73EFD8006800EFE21084028
:105080000646C1363146412000F0F2FC3520FFF7DC
:1050900031FD8106890E8348303081731E210D2039
:1050A00000F0E6FC00217F48243001730C30417091
:1050B000303881874187C7E07A484030407D0128F9
:1050C0000FD13320FFF716FDBE21084006464136BA
:1050D0003146332000F0CCFC19213B2000F0C8FC05
:1050E0000DE03320FFF706FDBE210840461C314687
:1050F000332000F0BDFC1D213B2000F0B9FC6948C5
:10510000406C092869D23120FFF7F4FC4606760E80
:105110003146312000F0ACFC0021302000F0A8FC2A
:105120006048406C030001F020FA0906111C273288
:105130003D484D52570048212F2000F099FC594915
:105140008968594A8818FFF733FE45E044212F202B
:1051500000F08EFC53498968544A8818FFF728FEEE
:105160003AE044212F2000F083FC4E498968504AE0
:105170008818FFF71DFE2FE044212F2000F078FC57
:10518000484989684B4A8818FFF712FE24E04421F9
:105190002F2000F06DFC43498968474A8818FFF7C3
:1051A00007FE19E044212F2000F062FC3D49896888
:1051B000424A8818FFF7FCFD0EE040212F2000F046
:1051C00057FC09E040212F2000F052FC04E0402170
:1051D0002F2000F04DFC00BF09E03120FFF78AFCD2
:1051E0008021084306463146312000F041FC2D481D
:1051F0004030857DC07C012810D11D21112000F098
:1052000037FC4020FFF776FC8006800EF321084033
:1052100006463146402000F02BFC0CE01F211120F7
:1052200000F026FC4020FFF765FC8606B60E3146EE
:10523000402000F01DFC00210F2000F019FC00218F
:105240000D2000F015FC00BF00BFFF2101311C48FC
:10525000FAF7C1FF012013490871002C06D021463E
:10526000184800F0AEFD174800F0C0FD0D48407929
:1052700000280DD10520FFF731FE002D11D109487E
:10528000C16A114800F09DFD0F4800F0AFFD08E035
:10529000012D03D10520FFF721FE02E00620FFF7D4
:1052A0001DFE70BD78010020821E0000B4280000A1
:1052B000043D00005E510000127A0000C6A200000A
:1052C00078000020F401002008020020FFB58DB016
:1052D0000D461446199F179E0D98FFF7B3FD0D98C4
:1052E000002802D0012873D197E0B9484561C46114
:1052F00016998161001D87771A99C17708301B992B
:1053000001761E9941761F9981760C3806842046D5
:10531000FBF722F902460B46019100900020AD49AF
:10532000FBF78EF80022AC4B03910290FBF720F8BC
:10533000079106901898FBF70FF905910490079BC9
:10534000069AFBF715F80022A44B09910890FBF789
:105350000FF80B910A90FBF70DF901469C48C162CA
:105360002046FBF7F9F802460B4609910890002009
:105370009B49FBF765F80B910A90FBF7FBF884B2A9
:10538000210A022000F074FBE1B2032000F070FB60
:105390002846FBF74BFB01460B90122000F068FB00
:1053A0001698FBF743FB01460B90132000F060FBBF
:1053B0003004010E252000F05BFBF1B2262000F046
:1053C00057FB012F05D132201A9900F051FB04E060
:1053D000FBE0FF21322000F04BFB3020FFF78AFB7F
:1053E000EF2108404006400E012F01D1002100E0CE
:1053F000802108431B990901084301460B90302086
:1054000000F036FB3120FFF775FB402108430146D1
:105410000B90312000F02CFBD7E0022D01D900BF0A
:10542000FEE7ED1D6A48456484644030109941737D
:10543000C68107741A9941741B9981741C99C174AF
:105440001D9901751E9941751F9981750C2C01D903
:105450000C2402E0062C00D20624072D03D10B2CCD
:1054600005D00C2C03D0082D06D10C2C04D1012121
:1054700057484030017303E0002155484030017324
:105480001D20FFF737FB0007000FF021084029011E
:1054900008431099490008433843C0B201460B90B5
:1054A0001D2000F0E5FA1E20FFF724FB0007000F87
:1054B000F8210840210108431B99890008431899E5
:1054C0000912FC2291430843C0B201460B901E20F2
:1054D00000F0CEFA2620FFF70DFBF72108403C49EB
:1054E0004031097BC9000843C0B201460B90262019
:1054F00000F0BEFA1898C1B21F2000F0B9FA3004CB
:10550000010E202000F0B4FAF1B2212000F0B0FA30
:10551000012F03D122201A9900F0AAFA2C4840301A
:10552000C07C012810D14420FFF7E4FA4006400E69
:10553000803001460B90442000F09AFA2448403015
:10554000017D242000F094FA092D0DD120488068B7
:105550002449884208D90221362000F089FA6421C2
:105560003A2000F085FA0EE0092D08D102213620FC
:1055700000F07EFA7F213A2000F07AFA03E003215E
:10558000362000F075FA062C0FD13120FFF7B2FA61
:10559000F8210840401D01460B90312000F068FAC8
:1055A0000C21372000F064FA0EE03120FFF7A2FA58
:1055B000F8210840C01C01460B90312000F058FA39
:1055C0000A21372000F054FA00BF00BF11B0F0BD2F
:1055D000780100200000F03F0000204000408F4094
:1055E00080847E4140DD4A1F10B5064800F03AFC39
:1055F000054800F037FC0020FFF770FC002003494D
:10560000087110BDF4010020E001002078010020A5
:1056100010B5064800F026FC054800F023FC0120E8
:10562000FFF75CFC00200349087110BDF401002065
:10563000E00100207801002070B5044621462F4883
:1056400000F0BFFB2E484079002802D0012849D144
:1056500021E04020FFF74EFA8006800EC32108406B
:10566000054610352946402000F002FA4120FFF798
:1056700041FA8006800EFE21084005462946412059
:1056800000F0F6F93520FFF735FA8106890E1C483F
:105690003030817326E01A484030C07C012811D197
:1056A000F521112000F0E4F94020FFF723FA8006ED
:1056B000800EF3210840054640352946402000F081
:1056C000D7F90EE0F721112000F0D2F94020FFF7C2
:1056D00011FA8006800E054640352946402000F02C
:1056E000C7F900BF00BF022005490871034800F058
:1056F0007DFB0320FFF7F2FB70BD0000E0010020FE
:1057000078010020FFB585B017461D46109E0E9CFF
:105710000598FFF797FB93480068C168069888478B
:105720000598002802D001286AD16AE08E490698BF
:105730000873084607614561C4610684001D11991C
:105740008177083012990176159941760C381699AF
:1057500081623846FAF700FF0022844B01910090E5
:10576000FAF76EFE03910290FAF704FF87B2390A46
:10577000042000F07DF9F9B2052000F079F9204607
:10578000FAF7EAFE02460B460191009000207849A4
:10579000FAF756FE03910290FAF7ECFE84B2210A62
:1057A000022000F065F9E1B2032000F061F9300455
:1057B000010E252000F05CF9F1B2262000F058F926
:1057C0003020FFF797F9EF2108404006400E11996D
:1057D000012901D1002100E080210843129909012B
:1057E000084301460390302000F042F93120FFF7D2
:1057F00081F94021084301460390312000F038F937
:10580000ADE05948243006990177022D01D900BF37
:10581000FEE7ED1D54484564846440300F994173A0
:10582000C681119901741399C17414990175129963
:105830008174159941754038169981650C2C01D9F0
:105840000C2402E0062C00D20624072D03D10B2CD9
:1058500005D00C2C03D0082D06D10C2C04D101212D
:1058600041484030017303E000213F48403001735C
:105870003D484030C07C012810D14420FFF73AF960
:105880004006400E803001460390442000F0F0F8BE
:1058900035484030017D242000F0EAF81D20FFF754
:1058A00029F90007000FF0210840290108430F994A
:1058B0004900084311990843C0B2014603901D20D6
:1058C00000F0D6F81E20FFF715F90007000FFB21A6
:1058D000084021010843129989000843C0B20146DB
:1058E00003901E2000F0C4F82620FFF703F9F721EB
:1058F00008401D494031097BC9000843C0B2014638
:105900000390262000F0B4F83004010E202000F0AF
:10591000AFF8F1B2212000F0ABF8062C0FD1312006
:10592000FFF7E8F8F8210840401D014603903120B8
:1059300000F09EF80C21372000F09AF80EE031209C
:10594000FFF7D8F8F8210840C01C01460390312029
:1059500000F08EF80A21372000F08AF800BF00BF5F
:1059600009B0F0BD040000207801002080844E4082
:1059700080847E41F7B58AB0064614467D20C0007B
:10598000604305463046FFF713FA00200590069065
:1059900005220790019003900895029204904B20F5
:1059A000800100231A46009018460B99FFF7AAFEC3
:1059B0003120FFF79FF8BF210840074639463120C4
:1059C00000F056F8F021402000F052F8A0214120CC
:1059D00000F04EF82946074800F0F3F90220064986
:1059E0000871044800F002FA0320FFF777FA0DB0BF
:1059F000F0BD0000E00100207801002010B5044651
:105A0000012C09D10122010305200007FDF736FB17
:105A10000520FAF7A3FF06E0002201210903052073
:105A20000007FDF72BFB10BD10B51048407900288A
:105A300002D0012816D100E015E0FA21112000F073
:105A400017F84020FFF756F8FC210840044621468D
:105A5000402000F00DF80320044908710720FFF7EB
:105A60003DFA00E000BF00BF10BD0000780100203B
:105A700013B50446012201A9204600F001F81CBD1F
:105A8000F8B505460E46174600220121C903052038
:105A90000007FDF7F3FA802129430846FDF754FD7E
:105AA000002404E0305DFDF74FFD601CC4B2BC4231
:105AB000F8DB0122D10305200007FDF7DFFAF8BD6E
:105AC00070B504460D462A4621460020FFF7D8FF50
:105AD00070BD000030B502460021104C236804E080
